{
  "contractName": "Mixer",
  "abi": [
    {
      "constant": true,
      "inputs": [],
      "name": "filled_subtrees",
      "outputs": [
        {
          "name": "",
          "type": "uint256[]"
        }
      ],
      "payable": false,
      "stateMutability": "view",
      "type": "function"
    },
    {
      "constant": true,
      "inputs": [
        {
          "name": "",
          "type": "uint256"
        }
      ],
      "name": "nullifierHashes",
      "outputs": [
        {
          "name": "",
          "type": "bool"
        }
      ],
      "payable": false,
      "stateMutability": "view",
      "type": "function"
    },
    {
      "constant": true,
      "inputs": [],
      "name": "verifier",
      "outputs": [
        {
          "name": "",
          "type": "address"
        }
      ],
      "payable": false,
      "stateMutability": "view",
      "type": "function"
    },
    {
      "constant": true,
      "inputs": [],
      "name": "transferValue",
      "outputs": [
        {
          "name": "",
          "type": "uint256"
        }
      ],
      "payable": false,
      "stateMutability": "view",
      "type": "function"
    },
    {
      "constant": true,
      "inputs": [],
      "name": "roots",
      "outputs": [
        {
          "name": "",
          "type": "uint256[]"
        }
      ],
      "payable": false,
      "stateMutability": "view",
      "type": "function"
    },
    {
      "constant": true,
      "inputs": [
        {
          "name": "",
          "type": "uint256"
        }
      ],
      "name": "commitments",
      "outputs": [
        {
          "name": "",
          "type": "bool"
        }
      ],
      "payable": false,
      "stateMutability": "view",
      "type": "function"
    },
    {
      "constant": true,
      "inputs": [],
      "name": "zeros",
      "outputs": [
        {
          "name": "",
          "type": "uint256[]"
        }
      ],
      "payable": false,
      "stateMutability": "view",
      "type": "function"
    },
    {
      "constant": true,
      "inputs": [],
      "name": "levels",
      "outputs": [
        {
          "name": "",
          "type": "uint256"
        }
      ],
      "payable": false,
      "stateMutability": "view",
      "type": "function"
    },
    {
      "constant": true,
      "inputs": [],
      "name": "operator",
      "outputs": [
        {
          "name": "",
          "type": "address"
        }
      ],
      "payable": false,
      "stateMutability": "view",
      "type": "function"
    },
    {
      "constant": true,
      "inputs": [],
      "name": "isDepositsEnabled",
      "outputs": [
        {
          "name": "",
          "type": "bool"
        }
      ],
      "payable": false,
      "stateMutability": "view",
      "type": "function"
    },
    {
      "constant": true,
      "inputs": [
        {
          "name": "left",
          "type": "uint256"
        },
        {
          "name": "right",
          "type": "uint256"
        }
      ],
      "name": "hashLeftRight",
      "outputs": [
        {
          "name": "mimc_hash",
          "type": "uint256"
        }
      ],
      "payable": false,
      "stateMutability": "pure",
      "type": "function"
    },
    {
      "constant": true,
      "inputs": [],
      "name": "next_index",
      "outputs": [
        {
          "name": "",
          "type": "uint32"
        }
      ],
      "payable": false,
      "stateMutability": "view",
      "type": "function"
    },
    {
      "constant": true,
      "inputs": [],
      "name": "current_root",
      "outputs": [
        {
          "name": "",
          "type": "uint256"
        }
      ],
      "payable": false,
      "stateMutability": "view",
      "type": "function"
    },
    {
      "constant": true,
      "inputs": [
        {
          "name": "root",
          "type": "uint256"
        }
      ],
      "name": "isKnownRoot",
      "outputs": [
        {
          "name": "",
          "type": "bool"
        }
      ],
      "payable": false,
      "stateMutability": "view",
      "type": "function"
    },
    {
      "constant": true,
      "inputs": [],
      "name": "getLastRoot",
      "outputs": [
        {
          "name": "",
          "type": "uint256"
        }
      ],
      "payable": false,
      "stateMutability": "view",
      "type": "function"
    },
    {
      "inputs": [
        {
          "name": "_verifier",
          "type": "address"
        },
        {
          "name": "_transferValue",
          "type": "uint256"
        },
        {
          "name": "_merkleTreeHeight",
          "type": "uint8"
        },
        {
          "name": "_emptyElement",
          "type": "uint256"
        },
        {
          "name": "_operator",
          "type": "address"
        }
      ],
      "payable": false,
      "stateMutability": "nonpayable",
      "type": "constructor"
    },
    {
      "anonymous": false,
      "inputs": [
        {
          "indexed": true,
          "name": "commitment",
          "type": "uint256"
        },
        {
          "indexed": false,
          "name": "leafIndex",
          "type": "uint256"
        },
        {
          "indexed": false,
          "name": "timestamp",
          "type": "uint256"
        }
      ],
      "name": "Deposit",
      "type": "event"
    },
    {
      "anonymous": false,
      "inputs": [
        {
          "indexed": false,
          "name": "to",
          "type": "address"
        },
        {
          "indexed": false,
          "name": "nullifierHash",
          "type": "uint256"
        },
        {
          "indexed": false,
          "name": "fee",
          "type": "uint256"
        }
      ],
      "name": "Withdraw",
      "type": "event"
    },
    {
      "constant": false,
      "inputs": [
        {
          "name": "commitment",
          "type": "uint256"
        }
      ],
      "name": "deposit",
      "outputs": [],
      "payable": true,
      "stateMutability": "payable",
      "type": "function"
    },
    {
      "constant": false,
      "inputs": [
        {
          "name": "a",
          "type": "uint256[2]"
        },
        {
          "name": "b",
          "type": "uint256[2][2]"
        },
        {
          "name": "c",
          "type": "uint256[2]"
        },
        {
          "name": "input",
          "type": "uint256[4]"
        }
      ],
      "name": "withdraw",
      "outputs": [],
      "payable": false,
      "stateMutability": "nonpayable",
      "type": "function"
    },
    {
      "constant": false,
      "inputs": [],
      "name": "toggleDeposits",
      "outputs": [],
      "payable": false,
      "stateMutability": "nonpayable",
      "type": "function"
    },
    {
      "constant": false,
      "inputs": [
        {
          "name": "_newAccount",
          "type": "address"
        }
      ],
      "name": "changeOperator",
      "outputs": [],
      "payable": false,
      "stateMutability": "nonpayable",
      "type": "function"
    },
    {
      "constant": true,
      "inputs": [
        {
          "name": "nullifier",
          "type": "uint256"
        }
      ],
      "name": "isSpent",
      "outputs": [
        {
          "name": "",
          "type": "bool"
        }
      ],
      "payable": false,
      "stateMutability": "view",
      "type": "function"
    }
  ],
  "bytecode": "0x608060405260006002556005805463ffffffff191690556007805460ff191660011790553480156200003057600080fd5b50604051620014cd380380620014cd833981810160405260a08110156200005657600080fd5b50805160208201516040830151606084015160809094015160ff82166000818155600480546001810182558183527f8a35acfbc15ff81a39ae7d344fd709f28e8600b4aa8c65c6b64bfe7fe36bd19b01889055805496979596949594859260039291620000bf57fe5b60009182526020808320909101548354600181810186559484529190922001555b6000548160ff161015620001915760046200013e60046001840360ff16815481106200010857fe5b906000526020600020015460046001850360ff16815481106200012757fe5b90600052602060002001546200026160201b60201c565b81546001810183556000928352602090922090910155600480546003919060ff84169081106200016a57fe5b600091825260208083209091015483546001818101865594845291909220015501620000e0565b50604080516064808252610ca082019092529060208201610c808038833950508151620001c6926001925060200190620003fe565b50620001fc600460016000540381548110620001de57fe5b90600052602060002001546004600160005403815481106200012757fe5b60016000815481106200020b57fe5b6000918252602090912001555050600a80546001600160a01b039687166001600160a01b03199091161790556006939093555050600780549190921661010002610100600160a81b03199091161790556200046e565b60007f30644e72e131a029b85045b68181585d2833e84879b9709143e1f593f0000001818082868308604080517f3f1a1187000000000000000000000000000000000000000000000000000000008152600481018390526024810184905260006044820152815192945073__MiMC__________________________________92633f1a118792606480840193919291829003018186803b1580156200030557600080fd5b505af41580156200031a573d6000803e3d6000fd5b505050506040513d60408110156200033157600080fd5b508051602090910151909250905082806200034857fe5b858308604080517f3f1a1187000000000000000000000000000000000000000000000000000000008152600481018390526024810184905260006044820152815192945073__MiMC__________________________________92633f1a118792606480840193919291829003018186803b158015620003c657600080fd5b505af4158015620003db573d6000803e3d6000fd5b505050506040513d6040811015620003f257600080fd5b50519695505050505050565b8280548282559060005260206000209081019282156200043c579160200282015b828111156200043c5782518255916020019190600101906200041f565b506200044a9291506200044e565b5090565b6200046b91905b808211156200044a576000815560010162000455565b90565b61104f806200047e6000396000f3fe60806040526004361061011f5760003560e01c8063570ca735116100a05780638b145d6d116100645780638b145d6d14610478578063a6232a931461048d578063b6b55f25146104b7578063ba70f757146104d4578063d907813c146104e95761011f565b8063570ca735146103c65780635777bf50146103db5780635a129efe146103f05780635bb939951461041a57806365576fab1461044a5761011f565b8063393fe1cd116100e7578063393fe1cd1461025457806349ce8997146102695780634cd212eb146102935780634ecf518b146102a8578063551c4fd2146102bd5761011f565b806306394c9b146101245780631247ae58146101595780631f79a1e9146101be5780632b7ac3f3146101fc5780632d9ed8d51461022d575b600080fd5b34801561013057600080fd5b506101576004803603602081101561014757600080fd5b50356001600160a01b03166104fe565b005b34801561016557600080fd5b5061016e610579565b60408051602080825283518183015283519192839290830191858101910280838360005b838110156101aa578181015183820152602001610192565b505050509050019250505060405180910390f35b3480156101ca57600080fd5b506101e8600480360360208110156101e157600080fd5b50356105d1565b604080519115158252519081900360200190f35b34801561020857600080fd5b506102116105e6565b604080516001600160a01b039092168252519081900360200190f35b34801561023957600080fd5b506102426105f5565b60408051918252519081900360200190f35b34801561026057600080fd5b5061016e6105fb565b34801561027557600080fd5b506101e86004803603602081101561028c57600080fd5b5035610651565b34801561029f57600080fd5b5061016e610666565b3480156102b457600080fd5b506102426106bc565b3480156102c957600080fd5b5061015760048036036101808110156102e157600080fd5b6040805180820182529183019291818301918390600290839083908082843760009201829052506040805180820190915293969594608081019493509150600290835b828210156103625760408051808201825290808402860190600290839083908082843760009201919091525050508152600190910190602001610324565b5050604080518082018252939695948181019493509150600290839083908082843760009201919091525050604080516080818101909252929594938181019392509060049083908390808284376000920191909152509194506106c29350505050565b3480156103d257600080fd5b50610211610a6c565b3480156103e757600080fd5b506101e8610a80565b3480156103fc57600080fd5b506101e86004803603602081101561041357600080fd5b5035610a89565b34801561042657600080fd5b506102426004803603604081101561043d57600080fd5b5080359060200135610aa1565b34801561045657600080fd5b5061045f610c05565b6040805163ffffffff9092168252519081900360200190f35b34801561048457600080fd5b50610242610c11565b34801561049957600080fd5b506101e8600480360360208110156104b057600080fd5b5035610c17565b610157600480360360208110156104cd57600080fd5b5035610caf565b3480156104e057600080fd5b50610242610dfb565b3480156104f557600080fd5b50610157610e1c565b60075461010090046001600160a01b03163314610551576040805162461bcd60e51b815260206004820152600c60248201526b1d5b985d5d1a1bdc9a5e995960a21b604482015290519081900360640190fd5b600780546001600160a01b0390921661010002610100600160a81b0319909216919091179055565b606060038054806020026020016040519081016040528092919081815260200182805480156105c757602002820191906000526020600020905b8154815260200190600101908083116105b3575b5050505050905090565b60086020526000908152604090205460ff1681565b600a546001600160a01b031681565b60065481565b606060018054806020026020016040519081016040528092919081815260200182805480156105c757602002820191906000526020600020908154815260200190600101908083116105b3575050505050905090565b60096020526000908152604090205460ff1681565b606060048054806020026020016040519081016040528092919081815260200182805480156105c757602002820191906000526020600020908154815260200190600101908083116105b3575050505050905090565b60005481565b8051602080830151604080850151606086015160008481526008909552919093205491929160ff161561073c576040805162461bcd60e51b815260206004820152601f60248201527f546865206e6f746520686173206265656e20616c7265616479207370656e7400604482015290519081900360640190fd5b6006548110610792576040805162461bcd60e51b815260206004820152601a60248201527f4665652065786365656473207472616e736665722076616c7565000000000000604482015290519081900360640190fd5b61079b84610c17565b6107ec576040805162461bcd60e51b815260206004820152601c60248201527f43616e6e6f742066696e6420796f7572206d65726b6c6520726f6f7400000000604482015290519081900360640190fd5b600a5460408051635fe8c13b60e01b81526001600160a01b0390921691635fe8c13b918b918b918b918b916004909101908190869080838360005b8381101561083f578181015183820152602001610827565b505050509050018460026000925b8184101561088d5760208402830151604080838360005b8381101561087c578181015183820152602001610864565b50505050905001926001019261084d565b9250505083600260200280838360005b838110156108b557818101518382015260200161089d565b5050505090500182600460200280838360005b838110156108e05781810151838201526020016108c8565b50505050905001945050505050602060405180830381600087803b15801561090757600080fd5b505af115801561091b573d6000803e3d6000fd5b505050506040513d602081101561093157600080fd5b505161097d576040805162461bcd60e51b815260206004820152601660248201527524b73b30b634b2103bb4ba34323930bb90383937b7b360511b604482015290519081900360640190fd5b600083815260086020526040808220805460ff1916600117905560065490516001600160a01b038516929184900380156108fc0292909190818181858888f193505050501580156109d2573d6000803e3d6000fd5b508015610a19576007546040516101009091046001600160a01b0316906108fc8315029083906000818181858888f19350505050158015610a17573d6000803e3d6000fd5b505b604080516001600160a01b03841681526020810185905280820183905290517ff279e6a1f5e320cca91135676d9cb6e44ca8a08c0b88342bcdb1144f6511b5689181900360600190a15050505050505050565b60075461010090046001600160a01b031681565b60075460ff1681565b60008181526008602052604090205460ff165b919050565b60007f30644e72e131a029b85045b68181585d2833e84879b9709143e1f593f000000181808286830860408051633f1a118760e01b8152600481018390526024810184905260006044820152815192945073__MiMC__________________________________92633f1a118792606480840193919291829003018186803b158015610b2b57600080fd5b505af4158015610b3f573d6000803e3d6000fd5b505050506040513d6040811015610b5557600080fd5b50805160209091015190925090508280610b6b57fe5b85830860408051633f1a118760e01b8152600481018390526024810184905260006044820152815192945073__MiMC__________________________________92633f1a118792606480840193919291829003018186803b158015610bcf57600080fd5b505af4158015610be3573d6000803e3d6000fd5b505050506040513d6040811015610bf957600080fd5b50519695505050505050565b60055463ffffffff1681565b60025481565b600081610c2657506000610a9c565b6002545b600019811015610c665760018181548110610c4157fe5b9060005260206000200154831415610c5d576001915050610a9c565b60001901610c2a565b5060635b600254811115610ca65760018181548110610c8157fe5b9060005260206000200154831415610c9d576001915050610a9c565b60001901610c6a565b50600092915050565b60075460ff16610cfa576040805162461bcd60e51b815260206004820152601160248201527019195c1bdcda5d1cc8191a5cd8589b1959607a1b604482015290519081900360640190fd5b6006543414610d3a5760405162461bcd60e51b8152600401808060200182810382526036815260200180610fc46036913960400191505060405180910390fd5b60008181526009602052604090205460ff1615610d885760405162461bcd60e51b8152600401808060200182810382526021815260200180610ffa6021913960400191505060405180910390fd5b610d9181610e83565b600081815260096020908152604091829020805460ff19166001179055600554825160001963ffffffff9283160190911681524291810191909152815183927f33da4f9b82b3e18a281ca2cabbe2f076925692abb593b7ea3f850009e8ec9770928290030190a250565b6000600160025481548110610e0c57fe5b9060005260206000200154905090565b60075461010090046001600160a01b03163314610e6f576040805162461bcd60e51b815260206004820152600c60248201526b1d5b985d5d1a1bdc9a5e995960a21b604482015290519081900360640190fd5b6007805460ff19811660ff90911615179055565b60055460005463ffffffff909116906000190160020a811415610ee3576040805162461bcd60e51b815260206004820152601360248201527213595c9adb19481d1c9959481a5cc8199d5b1b606a1b604482015290519081900360640190fd5b6005805463ffffffff8082166001011663ffffffff1990911617905581600080805b600054811015610f915760018516610f535783925060048181548110610f2757fe5b906000526020600020015491508360038281548110610f4257fe5b600091825260209091200155610f71565b60038181548110610f6057fe5b906000526020600020015492508391505b610f7b8383610aa1565b9350600263ffffffff8616049450600101610f05565b50600254606490600101066002819055600180548592908110610fb057fe5b600091825260209091200155505050505056fe506c656173652073656e6420607472616e7366657256616c7565602045544820616c6f6e672077697468207472616e73616374696f6e54686520636f6d6d69746d656e7420686173206265656e207375626d6974746564a265627a7a72305820736e0f87b19bea46903158124954db6f6ac6b2572c17a43597584de5e4c73c9864736f6c634300050a0032",
  "source": "// https://tornado.cash\n/*\n* d888888P                                           dP              a88888b.                   dP\n*    88                                              88             d8'   `88                   88\n*    88    .d8888b. 88d888b. 88d888b. .d8888b. .d888b88 .d8888b.    88        .d8888b. .d8888b. 88d888b.\n*    88    88'  `88 88'  `88 88'  `88 88'  `88 88'  `88 88'  `88    88        88'  `88 Y8ooooo. 88'  `88\n*    88    88.  .88 88       88    88 88.  .88 88.  .88 88.  .88 dP Y8.   .88 88.  .88       88 88    88\n*    dP    `88888P' dP       dP    dP `88888P8 `88888P8 `88888P' 88  Y88888P' `88888P8 `88888P' dP    dP\n* ooooooooooooooooooooooooooooooooooooooooooooooooooooooooooooooooooooooooooooooooooooooooooooooooooooooo\n*/\n\npragma solidity ^0.5.8;\n\nimport \"./MerkleTreeWithHistory.sol\";\n\ncontract IVerifier {\n  function verifyProof(uint256[2] memory a, uint256[2][2] memory b, uint256[2] memory c, uint256[4] memory input) public returns(bool);\n}\n\ncontract Mixer is MerkleTreeWithHistory {\n  uint256 public transferValue;\n  bool public isDepositsEnabled = true;\n  // operator can disable new deposits in case of emergency\n  // it also receives a relayer fee\n  address payable public operator;\n  mapping(uint256 => bool) public nullifierHashes;\n  // we store all commitments just to prevent accidental deposits with the same commitment\n  mapping(uint256 => bool) public commitments;\n  IVerifier public verifier;\n\n  event Deposit(uint256 indexed commitment, uint256 leafIndex, uint256 timestamp);\n  event Withdraw(address to, uint256 nullifierHash, uint256 fee);\n\n  /**\n    @dev The constructor\n    @param _verifier the address of SNARK verifier for this contract\n    @param _transferValue the value for all deposits in this contract in wei\n  */\n  constructor(\n    address _verifier,\n    uint256 _transferValue,\n    uint8 _merkleTreeHeight,\n    uint256 _emptyElement,\n    address payable _operator\n  ) MerkleTreeWithHistory(_merkleTreeHeight, _emptyElement) public {\n    verifier = IVerifier(_verifier);\n    transferValue = _transferValue;\n    operator = _operator;\n  }\n\n  /**\n    @dev Deposit funds into mixer. The caller must send value equal to `transferValue` of this mixer.\n    @param commitment the note commitment, which is PedersenHash(nullifier + secret)\n  */\n  function deposit(uint256 commitment) public payable {\n    require(isDepositsEnabled, \"deposits disabled\");\n    require(msg.value == transferValue, \"Please send `transferValue` ETH along with transaction\");\n    require(!commitments[commitment], \"The commitment has been submitted\");\n    _insert(commitment);\n    commitments[commitment] = true;\n    emit Deposit(commitment, next_index - 1, block.timestamp);\n  }\n\n  /**\n    @dev Withdraw deposit from the mixer. `a`, `b`, and `c` are zkSNARK proof data, and input is an array of circuit public inputs\n    `input` array consists of:\n      - merkle root of all deposits in the mixer\n      - hash of unique deposit nullifier to prevent double spends\n      - the receiver of funds\n      - optional fee that goes to the transaction sender (usually a relay)\n  */\n  function withdraw(uint256[2] memory a, uint256[2][2] memory b, uint256[2] memory c, uint256[4] memory input) public {\n    uint256 root = input[0];\n    uint256 nullifierHash = input[1];\n    address payable receiver = address(input[2]);\n    uint256 fee = input[3];\n\n    require(!nullifierHashes[nullifierHash], \"The note has been already spent\");\n    require(fee < transferValue, \"Fee exceeds transfer value\");\n    require(isKnownRoot(root), \"Cannot find your merkle root\"); // Make sure to use a recent one\n    require(verifier.verifyProof(a, b, c, input), \"Invalid withdraw proof\");\n\n    nullifierHashes[nullifierHash] = true;\n    receiver.transfer(transferValue - fee);\n    if (fee > 0) {\n      operator.transfer(fee);\n    }\n    emit Withdraw(receiver, nullifierHash, fee);\n  }\n\n  function toggleDeposits() external {\n    require(msg.sender == operator, \"unauthorized\");\n    isDepositsEnabled = !isDepositsEnabled;\n  }\n\n  function changeOperator(address payable _newAccount) external {\n    require(msg.sender == operator, \"unauthorized\");\n    operator = _newAccount;\n  }\n\n  function isSpent(uint256 nullifier) public view returns(bool) {\n    return nullifierHashes[nullifier];\n  }\n}\n",
  "sourcePath": "/home/liam/tornado-mixer/contracts/Mixer.sol",
  "compiler": {
    "name": "solc",
    "version": "0.5.10+commit.5a6ea5b1.Emscripten.clang"
  },
  "schemaVersion": "3.0.11",
  "updatedAt": "2019-08-24T10:57:47.146Z",
  "devdoc": {
    "methods": {
      "constructor": {
        "details": "The constructor",
        "params": {
          "_transferValue": "the value for all deposits in this contract in wei",
          "_verifier": "the address of SNARK verifier for this contract"
        }
      },
      "deposit(uint256)": {
        "details": "Deposit funds into mixer. The caller must send value equal to `transferValue` of this mixer.",
        "params": {
          "commitment": "the note commitment, which is PedersenHash(nullifier + secret)"
        }
      },
      "withdraw(uint256[2],uint256[2][2],uint256[2],uint256[4])": {
        "details": "Withdraw deposit from the mixer. `a`, `b`, and `c` are zkSNARK proof data, and input is an array of circuit public inputs `input` array consists of: - merkle root of all deposits in the mixer - hash of unique deposit nullifier to prevent double spends - the receiver of funds - optional fee that goes to the transaction sender (usually a relay)"
      }
    }
  },
  "userdoc": {
    "methods": {}
  }
}